{
  "contractName": "Auctions",
  "abi": [
    {
      "constant": true,
      "inputs": [
        {
          "name": "",
          "type": "uint256"
        }
      ],
      "name": "auctions",
      "outputs": [
        {
          "name": "name",
          "type": "string"
        },
        {
          "name": "price",
          "type": "uint256"
        },
        {
          "name": "metadata",
          "type": "string"
        },
        {
          "name": "tokenId",
          "type": "uint256"
        },
        {
          "name": "repoAddress",
          "type": "address"
        },
        {
          "name": "owner",
          "type": "address"
        },
        {
          "name": "active",
          "type": "bool"
        },
        {
          "name": "finalized",
          "type": "bool"
        }
      ],
      "payable": false,
      "stateMutability": "view",
      "type": "function"
    },
    {
      "constant": true,
      "inputs": [
        {
          "name": "",
          "type": "address"
        },
        {
          "name": "",
          "type": "uint256"
        }
      ],
      "name": "auctionOwner",
      "outputs": [
        {
          "name": "",
          "type": "uint256"
        }
      ],
      "payable": false,
      "stateMutability": "view",
      "type": "function"
    },
    {
      "payable": false,
      "stateMutability": "nonpayable",
      "type": "fallback"
    },
    {
      "anonymous": false,
      "inputs": [
        {
          "indexed": false,
          "name": "_owner",
          "type": "address"
        },
        {
          "indexed": false,
          "name": "_auctionId",
          "type": "uint256"
        }
      ],
      "name": "AuctionCreated",
      "type": "event"
    },
    {
      "anonymous": false,
      "inputs": [
        {
          "indexed": false,
          "name": "_owner",
          "type": "address"
        },
        {
          "indexed": false,
          "name": "_auctionId",
          "type": "uint256"
        }
      ],
      "name": "AuctionFinalized",
      "type": "event"
    },
    {
      "constant": false,
      "inputs": [
        {
          "name": "_repoAddress",
          "type": "address"
        },
        {
          "name": "_tokenId",
          "type": "uint256"
        },
        {
          "name": "_auctionTitle",
          "type": "string"
        },
        {
          "name": "_metadata",
          "type": "string"
        },
        {
          "name": "_price",
          "type": "uint256"
        }
      ],
      "name": "createAuction",
      "outputs": [
        {
          "name": "",
          "type": "bool"
        }
      ],
      "payable": false,
      "stateMutability": "nonpayable",
      "type": "function"
    },
    {
      "constant": false,
      "inputs": [
        {
          "name": "_repoAddress",
          "type": "address"
        },
        {
          "name": "_tokenId",
          "type": "uint256"
        }
      ],
      "name": "createAuction",
      "outputs": [],
      "payable": false,
      "stateMutability": "nonpayable",
      "type": "function"
    },
    {
      "constant": false,
      "inputs": [
        {
          "name": "_auctionId",
          "type": "uint256"
        },
        {
          "name": "_to",
          "type": "address"
        }
      ],
      "name": "finalizeAuction",
      "outputs": [],
      "payable": false,
      "stateMutability": "nonpayable",
      "type": "function"
    },
    {
      "constant": true,
      "inputs": [],
      "name": "getCount",
      "outputs": [
        {
          "name": "",
          "type": "uint256"
        }
      ],
      "payable": false,
      "stateMutability": "view",
      "type": "function"
    },
    {
      "constant": true,
      "inputs": [
        {
          "name": "_owner",
          "type": "address"
        }
      ],
      "name": "getAuctionsOf",
      "outputs": [
        {
          "name": "",
          "type": "uint256[]"
        }
      ],
      "payable": false,
      "stateMutability": "view",
      "type": "function"
    },
    {
      "constant": true,
      "inputs": [
        {
          "name": "_owner",
          "type": "address"
        }
      ],
      "name": "getAuctionsCountOfOwner",
      "outputs": [
        {
          "name": "",
          "type": "uint256"
        }
      ],
      "payable": false,
      "stateMutability": "view",
      "type": "function"
    },
    {
      "constant": true,
      "inputs": [
        {
          "name": "_auctionId",
          "type": "uint256"
        }
      ],
      "name": "getAuctionById",
      "outputs": [
        {
          "name": "name",
          "type": "string"
        },
        {
          "name": "price",
          "type": "uint256"
        },
        {
          "name": "metadata",
          "type": "string"
        },
        {
          "name": "tokenId",
          "type": "uint256"
        },
        {
          "name": "repoAddress",
          "type": "address"
        },
        {
          "name": "owner",
          "type": "address"
        },
        {
          "name": "active",
          "type": "bool"
        },
        {
          "name": "finalized",
          "type": "bool"
        }
      ],
      "payable": false,
      "stateMutability": "view",
      "type": "function"
    }
  ],
  "bytecode": "0x608060405234801561001057600080fd5b50611800806100206000396000f300608060405260043610610099576000357c0100000000000000000000000000000000000000000000000000000000900463ffffffff1680631626b759146100ab57806318111ada146100f8578063571a26a0146102945780639472559f14610430578063a87d942c1461052b578063b1b61bfa14610556578063c8756cda146105ee578063d56aa5581461064f578063f7e88298146106a6575b3480156100a557600080fd5b50600080fd5b3480156100b757600080fd5b506100f660048036038101908080359060200190929190803573ffffffffffffffffffffffffffffffffffffffff1690602001909291905050506106f3565b005b34801561010457600080fd5b5061012360048036038101908080359060200190929190505050610a5c565b6040518080602001898152602001806020018881526020018773ffffffffffffffffffffffffffffffffffffffff1673ffffffffffffffffffffffffffffffffffffffff1681526020018673ffffffffffffffffffffffffffffffffffffffff1673ffffffffffffffffffffffffffffffffffffffff168152602001851515151581526020018415151515815260200183810383528b818151815260200191508051906020019080838360005b838110156101eb5780820151818401526020810190506101d0565b50505050905090810190601f1680156102185780820380516001836020036101000a031916815260200191505b50838103825289818151815260200191508051906020019080838360005b83811015610251578082015181840152602081019050610236565b50505050905090810190601f16801561027e5780820380516001836020036101000a031916815260200191505b509a505050505050505050505060405180910390f35b3480156102a057600080fd5b506102bf60048036038101908080359060200190929190505050610d22565b6040518080602001898152602001806020018881526020018773ffffffffffffffffffffffffffffffffffffffff1673ffffffffffffffffffffffffffffffffffffffff1681526020018673ffffffffffffffffffffffffffffffffffffffff1673ffffffffffffffffffffffffffffffffffffffff168152602001851515151581526020018415151515815260200183810383528b818151815260200191508051906020019080838360005b8381101561038757808201518184015260208101905061036c565b50505050905090810190601f1680156103b45780820380516001836020036101000a031916815260200191505b50838103825289818151815260200191508051906020019080838360005b838110156103ed5780820151818401526020810190506103d2565b50505050905090810190601f16801561041a5780820380516001836020036101000a031916815260200191505b509a505050505050505050505060405180910390f35b34801561043c57600080fd5b50610511600480360381019080803573ffffffffffffffffffffffffffffffffffffffff16906020019092919080359060200190929190803590602001908201803590602001908080601f0160208091040260200160405190810160405280939291908181526020018383808284378201915050505050509192919290803590602001908201803590602001908080601f016020809104026020016040519081016040528093929190818152602001838380828437820191505050505050919291929080359060200190929190505050610f03565b604051808215151515815260200191505060405180910390f35b34801561053757600080fd5b506105406112eb565b6040518082815260200191505060405180910390f35b34801561056257600080fd5b50610597600480360381019080803573ffffffffffffffffffffffffffffffffffffffff1690602001909291905050506112f7565b6040518080602001828103825283818151815260200191508051906020019060200280838360005b838110156105da5780820151818401526020810190506105bf565b505050509050019250505060405180910390f35b3480156105fa57600080fd5b50610639600480360381019080803573ffffffffffffffffffffffffffffffffffffffff16906020019092919080359060200190929190505050611393565b6040518082815260200191505060405180910390f35b34801561065b57600080fd5b50610690600480360381019080803573ffffffffffffffffffffffffffffffffffffffff1690602001909291905050506113c3565b6040518082815260200191505060405180910390f35b3480156106b257600080fd5b506106f1600480360381019080803573ffffffffffffffffffffffffffffffffffffffff1690602001909291908035906020019092919050505061140f565b005b6106fb6116b9565b60008381548110151561070a57fe5b90600052602060002090600602016101006040519081016040529081600082018054600181600116156101000203166002900480601f0160208091040260200160405190810160405280929190818152602001828054600181600116156101000203166002900480156107be5780601f10610793576101008083540402835291602001916107be565b820191906000526020600020905b8154815290600101906020018083116107a157829003601f168201915b5050505050815260200160018201548152602001600282018054600181600116156101000203166002900480601f01602080910402602001604051908101604052809291908181526020018280546001816001161561010002031660029004801561086a5780601f1061083f5761010080835404028352916020019161086a565b820191906000526020600020905b81548152906001019060200180831161084d57829003601f168201915b50505050508152602001600382015481526020016004820160009054906101000a900473ffffffffffffffffffffffffffffffffffffffff1673ffffffffffffffffffffffffffffffffffffffff1673ffffffffffffffffffffffffffffffffffffffff1681526020016005820160009054906101000a900473ffffffffffffffffffffffffffffffffffffffff1673ffffffffffffffffffffffffffffffffffffffff1673ffffffffffffffffffffffffffffffffffffffff1681526020016005820160149054906101000a900460ff161515151581526020016005820160159054906101000a900460ff16151515158152505090506109753083836080015184606001516114fc565b15610a57576000808481548110151561098a57fe5b906000526020600020906006020160050160146101000a81548160ff02191690831515021790555060016000848154811015156109c357fe5b906000526020600020906006020160050160156101000a81548160ff0219169083151502179055507f357afab190ee87fe0ef1c717f2728d2904d9e415a069d99f4d9382873cb3279d3384604051808373ffffffffffffffffffffffffffffffffffffffff1673ffffffffffffffffffffffffffffffffffffffff1681526020018281526020019250505060405180910390a15b505050565b6060600060606000806000806000610a726116b9565b60008a815481101515610a8157fe5b90600052602060002090600602016101006040519081016040529081600082018054600181600116156101000203166002900480601f016020809104026020016040519081016040528092919081815260200182805460018160011615610100020316600290048015610b355780601f10610b0a57610100808354040283529160200191610b35565b820191906000526020600020905b815481529060010190602001808311610b1857829003601f168201915b5050505050815260200160018201548152602001600282018054600181600116156101000203166002900480601f016020809104026020016040519081016040528092919081815260200182805460018160011615610100020316600290048015610be15780601f10610bb657610100808354040283529160200191610be1565b820191906000526020600020905b815481529060010190602001808311610bc457829003601f168201915b50505050508152602001600382015481526020016004820160009054906101000a900473ffffffffffffffffffffffffffffffffffffffff1673ffffffffffffffffffffffffffffffffffffffff1673ffffffffffffffffffffffffffffffffffffffff1681526020016005820160009054906101000a900473ffffffffffffffffffffffffffffffffffffffff1673ffffffffffffffffffffffffffffffffffffffff1673ffffffffffffffffffffffffffffffffffffffff1681526020016005820160149054906101000a900460ff161515151581526020016005820160159054906101000a900460ff1615151515815250509050806000015181602001518260400151836060015184608001518560a001518660c001518760e001518797508595509850985098509850985098509850985050919395975091939597565b600081815481101515610d3157fe5b9060005260206000209060060201600091509050806000018054600181600116156101000203166002900480601f016020809104026020016040519081016040528092919081815260200182805460018160011615610100020316600290048015610ddd5780601f10610db257610100808354040283529160200191610ddd565b820191906000526020600020905b815481529060010190602001808311610dc057829003601f168201915b505050505090806001015490806002018054600181600116156101000203166002900480601f016020809104026020016040519081016040528092919081815260200182805460018160011615610100020316600290048015610e815780601f10610e5657610100808354040283529160200191610e81565b820191906000526020600020905b815481529060010190602001808311610e6457829003601f168201915b5050505050908060030154908060040160009054906101000a900473ffffffffffffffffffffffffffffffffffffffff16908060050160009054906101000a900473ffffffffffffffffffffffffffffffffffffffff16908060050160149054906101000a900460ff16908060050160159054906101000a900460ff16905088565b600080610f0e6116b9565b878760008273ffffffffffffffffffffffffffffffffffffffff16636352211e836040518263ffffffff167c010000000000000000000000000000000000000000000000000000000002815260040180828152602001915050602060405180830381600087803b158015610f8157600080fd5b505af1158015610f95573d6000803e3d6000fd5b505050506040513d6020811015610fab57600080fd5b810190808051906020019092919050505090503073ffffffffffffffffffffffffffffffffffffffff168173ffffffffffffffffffffffffffffffffffffffff16141515610ff857600080fd5b600080549050945088846000018190525086846020018181525050878460400181905250898460600181815250508a846080019073ffffffffffffffffffffffffffffffffffffffff16908173ffffffffffffffffffffffffffffffffffffffff1681525050338460a0019073ffffffffffffffffffffffffffffffffffffffff16908173ffffffffffffffffffffffffffffffffffffffff168152505060018460c001901515908115158152505060008460e001901515908115158152505060008490806001815401808255809150509060018203906000526020600020906006020160009091929091909150600082015181600001908051906020019061110292919061172f565b5060208201518160010155604082015181600201908051906020019061112992919061172f565b506060820151816003015560808201518160040160006101000a81548173ffffffffffffffffffffffffffffffffffffffff021916908373ffffffffffffffffffffffffffffffffffffffff16021790555060a08201518160050160006101000a81548173ffffffffffffffffffffffffffffffffffffffff021916908373ffffffffffffffffffffffffffffffffffffffff16021790555060c08201518160050160146101000a81548160ff02191690831515021790555060e08201518160050160156101000a81548160ff021916908315150217905550505050600160003373ffffffffffffffffffffffffffffffffffffffff1673ffffffffffffffffffffffffffffffffffffffff1681526020019081526020016000208590806001815401808255809150509060018203906000526020600020016000909192909190915055507f3249a06bd478adf780bb7930214ad005e9cfa517d63221c0b77f27199d1a58b33386604051808373ffffffffffffffffffffffffffffffffffffffff1673ffffffffffffffffffffffffffffffffffffffff1681526020018281526020019250505060405180910390a160019550505050505095945050505050565b60008080549050905090565b606080600160008473ffffffffffffffffffffffffffffffffffffffff1673ffffffffffffffffffffffffffffffffffffffff16815260200190815260200160002080548060200260200160405190810160405280929190818152602001828054801561138357602002820191906000526020600020905b81548152602001906001019080831161136f575b5050505050905080915050919050565b6001602052816000526040600020818154811015156113ae57fe5b90600052602060002001600091509150505481565b6000600160008373ffffffffffffffffffffffffffffffffffffffff1673ffffffffffffffffffffffffffffffffffffffff168152602001908152602001600020805490509050919050565b60008273ffffffffffffffffffffffffffffffffffffffff16636352211e836040518263ffffffff167c010000000000000000000000000000000000000000000000000000000002815260040180828152602001915050602060405180830381600087803b15801561148057600080fd5b505af1158015611494573d6000803e3d6000fd5b505050506040513d60208110156114aa57600080fd5b810190808051906020019092919050505090503073ffffffffffffffffffffffffffffffffffffffff168173ffffffffffffffffffffffffffffffffffffffff161415156114f757600080fd5b505050565b6000808390508073ffffffffffffffffffffffffffffffffffffffff1663095ea7b386856040518363ffffffff167c0100000000000000000000000000000000000000000000000000000000028152600401808373ffffffffffffffffffffffffffffffffffffffff1673ffffffffffffffffffffffffffffffffffffffff16815260200182815260200192505050600060405180830381600087803b1580156115a557600080fd5b505af11580156115b9573d6000803e3d6000fd5b505050508073ffffffffffffffffffffffffffffffffffffffff166323b872dd8787866040518463ffffffff167c0100000000000000000000000000000000000000000000000000000000028152600401808473ffffffffffffffffffffffffffffffffffffffff1673ffffffffffffffffffffffffffffffffffffffff1681526020018373ffffffffffffffffffffffffffffffffffffffff1673ffffffffffffffffffffffffffffffffffffffff1681526020018281526020019350505050600060405180830381600087803b15801561169457600080fd5b505af11580156116a8573d6000803e3d6000fd5b505050506001915050949350505050565b6101006040519081016040528060608152602001600081526020016060815260200160008152602001600073ffffffffffffffffffffffffffffffffffffffff168152602001600073ffffffffffffffffffffffffffffffffffffffff1681526020016000151581526020016000151581525090565b828054600181600116156101000203166002900490600052602060002090601f016020900481019282601f1061177057805160ff191683800117855561179e565b8280016001018555821561179e579182015b8281111561179d578251825591602001919060010190611782565b5b5090506117ab91906117af565b5090565b6117d191905b808211156117cd5760008160009055506001016117b5565b5090565b905600a165627a7a723058208b2641ce2d4013132fd795025c94f69719660eb5919a7b31aca63f2ebb9bc4f30029",
  "source": "pragma solidity ^0.4.23;\n\nimport \"./MyNFT.sol\";\n\ncontract Auctions {\n    Auction[] public auctions;\n    mapping(address => uint[]) public auctionOwner;\n\n    struct Auction {\n        string name; //제목\n        uint256 price; //가격\n        string metadata; //메타데이터 : ipfs hash\n        uint256 tokenId; //tokenId\n        address repoAddress; //nft 컨트랙트 어드레스\n        address owner; //소유자\n        bool active; //활성화 여부\n        bool finalized; //판매 종료여부\n    }\n\n    function() public{\n        revert();\n    }\n\n    modifier contractIsNFTOwner(address _repoAddress, uint256 _tokenId) {\n        address nftOwner = MyNFT(_repoAddress).ownerOf(_tokenId);\n        require(nftOwner == address(this));\n        _;\n    }\n\n    function createAuction(address _repoAddress, uint256 _tokenId){\n        address nftOwner = MyNFT(_repoAddress).ownerOf(_tokenId);\n        require(nftOwner == address(this));\n    }\n\n    function createAuction(address _repoAddress, uint256 _tokenId,\nstring _auctionTitle, string _metadata, uint256 _price) public\n    contractIsNFTOwner(_repoAddress, _tokenId) returns(bool) {\n        uint auctionId = auctions.length;\n        Auction memory newAuction;\n        newAuction.name = _auctionTitle;\n        newAuction.price = _price;\n        newAuction.metadata = _metadata;\n        newAuction.tokenId = _tokenId;\n        newAuction.repoAddress = _repoAddress;\n        newAuction.owner = msg.sender;\n        newAuction.active = true;\n        newAuction.finalized = false;\n\n        auctions.push(newAuction);\n        auctionOwner[msg.sender].push(auctionId);\n\n        emit AuctionCreated(msg.sender, auctionId);\n        return true;\n    }\n\n    function finalizeAuction(uint _auctionId, address _to) public {\n        Auction memory myAuction = auctions[_auctionId];\n\n        if(approveAndTransfer(address(this), _to, myAuction.repoAddress, myAuction.tokenId)){\n            auctions[_auctionId].active = false;\n            auctions[_auctionId].finalized = true;\n            emit AuctionFinalized(msg.sender, _auctionId);\n        }\n    }\n\n    function approveAndTransfer(address _from, address _to, address _repoAddress, uint256 _tokenId) internal returns(bool){\n        MyNFT remoteContract = MyNFT(_repoAddress);\n        remoteContract.approve(_to,_tokenId);\n        remoteContract.transferFrom(_from, _to, _tokenId);\n        return true;\n    }\n    function getCount() public constant returns(uint){\n        return auctions.length;\n    }\n\n    function getAuctionsOf(address _owner) public constant\n    returns(uint[]){\n        uint[] memory ownedAuctions = auctionOwner[_owner];\n        return ownedAuctions;\n    }\n\n    function getAuctionsCountOfOwner(address _owner) public constant\n    returns(uint){\n        return auctionOwner[_owner].length;\n    }\n\n    function getAuctionById(uint _auctionId) public constant returns(\n    string name,\n    uint256 price,\n    string metadata,\n    uint256 tokenId,\n    address repoAddress,\n    address owner,\n    bool active,\n    bool finalized) {\n        Auction memory auc = auctions[_auctionId];\n        return (\n        auc.name,\n        auc.price,\n        auc.metadata,\n        auc.tokenId,\n        auc.repoAddress,\n        auc.owner,\n        auc.active,\n        auc.finalized);\n    }\n\n    event AuctionCreated(address _owner, uint _auctionId);\n    event AuctionFinalized(address _owner, uint _auctionId);\n\n}",
  "sourcePath": "C:\\Users\\tpgus\\develop\\ecommerce2-master\\contracts\\Auctions.sol",
  "compiler": {
    "name": "solc",
    "version": "0.4.25+commit.59dbf8f1.Emscripten.clang"
  },
  "schemaVersion": "2.0.2",
  "updatedAt": "2020-12-01T12:05:20.520Z"
}